{
  "contractName": "InfoStorage",
  "abi": [
    {
      "anonymous": false,
      "inputs": [
        {
          "indexed": true,
          "internalType": "uint256",
          "name": "id",
          "type": "uint256"
        },
        {
          "indexed": false,
          "internalType": "string",
          "name": "info",
          "type": "string"
        }
      ],
      "name": "InfoAdded",
      "type": "event"
    },
    {
      "inputs": [
        {
          "internalType": "uint256",
          "name": "",
          "type": "uint256"
        }
      ],
      "name": "infos",
      "outputs": [
        {
          "internalType": "string",
          "name": "data",
          "type": "string"
        }
      ],
      "stateMutability": "view",
      "type": "function",
      "constant": true
    },
    {
      "inputs": [
        {
          "internalType": "string",
          "name": "_data",
          "type": "string"
        }
      ],
      "name": "addInfo",
      "outputs": [],
      "stateMutability": "nonpayable",
      "type": "function"
    },
    {
      "inputs": [
        {
          "internalType": "uint256",
          "name": "_index",
          "type": "uint256"
        }
      ],
      "name": "getInfo",
      "outputs": [
        {
          "internalType": "string",
          "name": "",
          "type": "string"
        }
      ],
      "stateMutability": "view",
      "type": "function",
      "constant": true
    }
  ],
  "bytecode": "0x608060405234801561000f575f80fd5b5061096f8061001d5f395ff3fe608060405234801561000f575f80fd5b506004361061003f575f3560e01c80630bf803e4146100435780631a3cd59a1461005f57806328de3c9b1461008f575b5f80fd5b61005d6004803603810190610058919061043c565b6100bf565b005b610079600480360381019061007491906104b6565b610152565b604051610086919061055b565b60405180910390f35b6100a960048036038101906100a491906104b6565b610245565b6040516100b6919061055b565b60405180910390f35b5f604051806020016040528083815250908060018154018082558091505060019003905f5260205f20015f909190919091505f820151815f0190816101049190610775565b50505060015f805490506101189190610871565b7ff7c1ae70c30a3d3a10897e4996f7debca2cf3a05883802d2a015428cea465f7b82604051610147919061055b565b60405180910390a250565b60605f80549050821061019a576040517f08c379a0000000000000000000000000000000000000000000000000000000008152600401610191906108ee565b60405180910390fd5b5f82815481106101ad576101ac61090c565b5b905f5260205f20015f0180546101c2906105a8565b80601f01602080910402602001604051908101604052809291908181526020018280546101ee906105a8565b80156102395780601f1061021057610100808354040283529160200191610239565b820191905f5260205f20905b81548152906001019060200180831161021c57829003601f168201915b50505050509050919050565b5f8181548110610253575f80fd5b905f5260205f20015f91509050805f01805461026e906105a8565b80601f016020809104026020016040519081016040528092919081815260200182805461029a906105a8565b80156102e55780601f106102bc576101008083540402835291602001916102e5565b820191905f5260205f20905b8154815290600101906020018083116102c857829003601f168201915b5050505050905081565b5f604051905090565b5f80fd5b5f80fd5b5f80fd5b5f80fd5b5f601f19601f8301169050919050565b7f4e487b71000000000000000000000000000000000000000000000000000000005f52604160045260245ffd5b61034e82610308565b810181811067ffffffffffffffff8211171561036d5761036c610318565b5b80604052505050565b5f61037f6102ef565b905061038b8282610345565b919050565b5f67ffffffffffffffff8211156103aa576103a9610318565b5b6103b382610308565b9050602081019050919050565b828183375f83830152505050565b5f6103e06103db84610390565b610376565b9050828152602081018484840111156103fc576103fb610304565b5b6104078482856103c0565b509392505050565b5f82601f83011261042357610422610300565b5b81356104338482602086016103ce565b91505092915050565b5f60208284031215610451576104506102f8565b5b5f82013567ffffffffffffffff81111561046e5761046d6102fc565b5b61047a8482850161040f565b91505092915050565b5f819050919050565b61049581610483565b811461049f575f80fd5b50565b5f813590506104b08161048c565b92915050565b5f602082840312156104cb576104ca6102f8565b5b5f6104d8848285016104a2565b91505092915050565b5f81519050919050565b5f82825260208201905092915050565b5f5b838110156105185780820151818401526020810190506104fd565b5f8484015250505050565b5f61052d826104e1565b61053781856104eb565b93506105478185602086016104fb565b61055081610308565b840191505092915050565b5f6020820190508181035f8301526105738184610523565b905092915050565b7f4e487b71000000000000000000000000000000000000000000000000000000005f52602260045260245ffd5b5f60028204905060018216806105bf57607f821691505b6020821081036105d2576105d161057b565b5b50919050565b5f819050815f5260205f209050919050565b5f6020601f8301049050919050565b5f82821b905092915050565b5f600883026106347fffffffffffffffffffffffffffffffffffffffffffffffffffffffffffffffff826105f9565b61063e86836105f9565b95508019841693508086168417925050509392505050565b5f819050919050565b5f61067961067461066f84610483565b610656565b610483565b9050919050565b5f819050919050565b6106928361065f565b6106a661069e82610680565b848454610605565b825550505050565b5f90565b6106ba6106ae565b6106c5818484610689565b505050565b5b818110156106e8576106dd5f826106b2565b6001810190506106cb565b5050565b601f82111561072d576106fe816105d8565b610707846105ea565b81016020851015610716578190505b61072a610722856105ea565b8301826106ca565b50505b505050565b5f82821c905092915050565b5f61074d5f1984600802610732565b1980831691505092915050565b5f610765838361073e565b9150826002028217905092915050565b61077e826104e1565b67ffffffffffffffff81111561079757610796610318565b5b6107a182546105a8565b6107ac8282856106ec565b5f60209050601f8311600181146107dd575f84156107cb578287015190505b6107d5858261075a565b86555061083c565b601f1984166107eb866105d8565b5f5b82811015610812578489015182556001820191506020850194506020810190506107ed565b8683101561082f578489015161082b601f89168261073e565b8355505b6001600288020188555050505b505050505050565b7f4e487b71000000000000000000000000000000000000000000000000000000005f52601160045260245ffd5b5f61087b82610483565b915061088683610483565b925082820390508181111561089e5761089d610844565b5b92915050565b7f496e666f20696e646578206973206f7574206f6620626f756e64732e000000005f82015250565b5f6108d8601c836104eb565b91506108e3826108a4565b602082019050919050565b5f6020820190508181035f830152610905816108cc565b9050919050565b7f4e487b71000000000000000000000000000000000000000000000000000000005f52603260045260245ffdfea26469706673582212207dd7de8f7796fb9fad586cd48d9997383fde693fd087519c6bd598be74a8c5a164736f6c63430008150033",
  "immutableReferences": {},
  "source": "// SPDX-License-Identifier: MIT\r\npragma solidity ^0.8.0;\r\n\r\ncontract InfoStorage {\r\n    // Event that logs the addition of new information\r\n    event InfoAdded(uint indexed id, string info);\r\n\r\n    struct Info {\r\n        string data;\r\n    }\r\n\r\n    Info[] public infos;\r\n\r\n    // Function to add information to the contract\r\n    function addInfo(string memory _data) public {\r\n        infos.push(Info(_data));\r\n        emit InfoAdded(infos.length - 1, _data);\r\n    }\r\n\r\n    // Function to retrieve information from the contract\r\n    function getInfo(uint _index) public view returns (string memory) {\r\n        require(_index < infos.length, \"Info index is out of bounds.\");\r\n        return infos[_index].data;\r\n    }\r\n}\r\n",
  "sourcePath": "C:\\Users\\DeLL\\PycharmProjects\\pythonProject4\\geeks-eth\\contracts\\goodies.sol",
  "compiler": {
    "name": "solc",
    "version": "0.8.21+commit.d9974bed.Emscripten.clang"
  },
  "schemaVersion": "3.4.16",
  "updatedAt": "2023-11-23T20:45:30.547Z",
  "networkType": "ethereum",
  "devdoc": {
    "kind": "dev",
    "methods": {},
    "version": 1
  },
  "userdoc": {
    "kind": "user",
    "methods": {},
    "version": 1
  }
}